{
  "_format": "hh-sol-artifact-1",
  "contractName": "HealthRecordsConsent",
  "sourceName": "contracts/HealthRecordsConsent.sol",
  "abi": [
    {
      "anonymous": false,
      "inputs": [
        {
          "indexed": true,
          "internalType": "uint256",
          "name": "recordId",
          "type": "uint256"
        },
        {
          "indexed": true,
          "internalType": "address",
          "name": "patient",
          "type": "address"
        },
        {
          "indexed": true,
          "internalType": "address",
          "name": "viewer",
          "type": "address"
        },
        {
          "indexed": false,
          "internalType": "uint64",
          "name": "expiresAt",
          "type": "uint64"
        }
      ],
      "name": "ConsentGranted",
      "type": "event"
    },
    {
      "anonymous": false,
      "inputs": [
        {
          "indexed": true,
          "internalType": "uint256",
          "name": "recordId",
          "type": "uint256"
        },
        {
          "indexed": true,
          "internalType": "address",
          "name": "patient",
          "type": "address"
        },
        {
          "indexed": true,
          "internalType": "address",
          "name": "viewer",
          "type": "address"
        }
      ],
      "name": "ConsentRevoked",
      "type": "event"
    },
    {
      "anonymous": false,
      "inputs": [
        {
          "indexed": true,
          "internalType": "uint256",
          "name": "recordId",
          "type": "uint256"
        },
        {
          "indexed": true,
          "internalType": "address",
          "name": "patient",
          "type": "address"
        },
        {
          "indexed": true,
          "internalType": "address",
          "name": "viewer",
          "type": "address"
        }
      ],
      "name": "EncryptedDEKSet",
      "type": "event"
    },
    {
      "anonymous": false,
      "inputs": [
        {
          "indexed": true,
          "internalType": "uint256",
          "name": "recordId",
          "type": "uint256"
        },
        {
          "indexed": true,
          "internalType": "address",
          "name": "patient",
          "type": "address"
        },
        {
          "indexed": true,
          "internalType": "address",
          "name": "uploader",
          "type": "address"
        },
        {
          "indexed": false,
          "internalType": "bytes32",
          "name": "recordType",
          "type": "bytes32"
        },
        {
          "indexed": false,
          "internalType": "bytes32",
          "name": "dataHash",
          "type": "bytes32"
        },
        {
          "indexed": false,
          "internalType": "string",
          "name": "cid",
          "type": "string"
        }
      ],
      "name": "RecordAdded",
      "type": "event"
    },
    {
      "inputs": [
        {
          "internalType": "address",
          "name": "patient",
          "type": "address"
        },
        {
          "internalType": "string",
          "name": "cid",
          "type": "string"
        },
        {
          "internalType": "bytes32",
          "name": "dataHash",
          "type": "bytes32"
        },
        {
          "internalType": "bytes32",
          "name": "recordType",
          "type": "bytes32"
        },
        {
          "internalType": "bytes",
          "name": "encryptedDEKForPatient",
          "type": "bytes"
        }
      ],
      "name": "addRecord",
      "outputs": [
        {
          "internalType": "uint256",
          "name": "recordId",
          "type": "uint256"
        }
      ],
      "stateMutability": "nonpayable",
      "type": "function"
    },
    {
      "inputs": [
        {
          "internalType": "uint256",
          "name": "recordId",
          "type": "uint256"
        },
        {
          "internalType": "address",
          "name": "viewer",
          "type": "address"
        }
      ],
      "name": "canView",
      "outputs": [
        {
          "internalType": "bool",
          "name": "",
          "type": "bool"
        }
      ],
      "stateMutability": "view",
      "type": "function"
    },
    {
      "inputs": [
        {
          "internalType": "uint256",
          "name": "recordId",
          "type": "uint256"
        }
      ],
      "name": "getEncryptedDEK",
      "outputs": [
        {
          "internalType": "bytes",
          "name": "",
          "type": "bytes"
        }
      ],
      "stateMutability": "view",
      "type": "function"
    },
    {
      "inputs": [],
      "name": "getMyPatientRecordIds",
      "outputs": [
        {
          "internalType": "uint256[]",
          "name": "",
          "type": "uint256[]"
        }
      ],
      "stateMutability": "view",
      "type": "function"
    },
    {
      "inputs": [],
      "name": "getMyViewerRecordIds",
      "outputs": [
        {
          "internalType": "uint256[]",
          "name": "",
          "type": "uint256[]"
        }
      ],
      "stateMutability": "view",
      "type": "function"
    },
    {
      "inputs": [
        {
          "internalType": "uint256",
          "name": "recordId",
          "type": "uint256"
        }
      ],
      "name": "getRecord",
      "outputs": [
        {
          "components": [
            {
              "internalType": "address",
              "name": "patient",
              "type": "address"
            },
            {
              "internalType": "address",
              "name": "uploader",
              "type": "address"
            },
            {
              "internalType": "string",
              "name": "cid",
              "type": "string"
            },
            {
              "internalType": "bytes32",
              "name": "dataHash",
              "type": "bytes32"
            },
            {
              "internalType": "bytes32",
              "name": "recordType",
              "type": "bytes32"
            },
            {
              "internalType": "uint64",
              "name": "createdAt",
              "type": "uint64"
            }
          ],
          "internalType": "struct HealthRecordsConsent.RecordMeta",
          "name": "",
          "type": "tuple"
        }
      ],
      "stateMutability": "view",
      "type": "function"
    },
    {
      "inputs": [
        {
          "internalType": "uint256",
          "name": "recordId",
          "type": "uint256"
        },
        {
          "internalType": "address",
          "name": "viewer",
          "type": "address"
        },
        {
          "internalType": "bytes",
          "name": "encryptedDEKForViewer",
          "type": "bytes"
        },
        {
          "internalType": "uint64",
          "name": "expiresAt",
          "type": "uint64"
        }
      ],
      "name": "grantAccess",
      "outputs": [],
      "stateMutability": "nonpayable",
      "type": "function"
    },
    {
      "inputs": [],
      "name": "nextRecordId",
      "outputs": [
        {
          "internalType": "uint256",
          "name": "",
          "type": "uint256"
        }
      ],
      "stateMutability": "view",
      "type": "function"
    },
    {
      "inputs": [
        {
          "internalType": "uint256",
          "name": "recordId",
          "type": "uint256"
        },
        {
          "internalType": "address",
          "name": "viewer",
          "type": "address"
        }
      ],
      "name": "revokeAccess",
      "outputs": [],
      "stateMutability": "nonpayable",
      "type": "function"
    }
  ],
  "bytecode": "0x6080604052600160005534801561001557600080fd5b50611264806100256000396000f3fe608060405234801561001057600080fd5b50600436106100935760003560e01c80634cd28172116100665780634cd28172146100f3578063a182ce3914610113578063ca230b2614610134578063d9a5ec1b14610157578063dbde207d1461016a57600080fd5b806303e9e60914610098578063229b17c0146100c15780633094cdc5146100d6578063367735b4146100eb575b600080fd5b6100ab6100a6366004610ce4565b610173565b6040516100b89190610d43565b60405180910390f35b6100d46100cf366004610e16565b6102f5565b005b6100de6105aa565b6040516100b89190610e8f565b6100de61060b565b610106610101366004610ce4565b61066a565b6040516100b89190610ed3565b610126610121366004610eed565b610758565b6040519081526020016100b8565b610147610142366004610f80565b610acc565b60405190151581526020016100b8565b6100d4610165366004610f80565b610b5f565b61012660005481565b6040805160c08101825260008082526020808301829052606083850181905283018290526080830182905260a083018290528482526001905291909120546001600160a01b03166101f75760405162461bcd60e51b81526020600482015260096024820152681393d7d49150d3d49160ba1b60448201526064015b60405180910390fd5b600082815260016020818152604092839020835160c08101855281546001600160a01b0390811682529382015490931691830191909152600281018054929391929184019161024590610fac565b80601f016020809104026020016040519081016040528092919081815260200182805461027190610fac565b80156102be5780601f10610293576101008083540402835291602001916102be565b820191906000526020600020905b8154815290600101906020018083116102a157829003601f168201915b505050918352505060038201546020820152600482015460408201526005909101546001600160401b031660609091015292915050565b60008581526001602052604090205485906001600160a01b0316331461034b5760405162461bcd60e51b815260206004820152600b60248201526a1393d517d410551251539560aa1b60448201526064016101ee565b6001600160a01b03851661038e5760405162461bcd60e51b815260206004820152600a6024820152692120a22fab24a2aba2a960b11b60448201526064016101ee565b826103c65760405162461bcd60e51b81526020600482015260086024820152674241445f4544454b60c01b60448201526064016101ee565b6000868152600160205260409020546001600160a01b03908116908616036104235760405162461bcd60e51b815260206004820152601060248201526f5553455f50415449454e545f5649455760801b60448201526064016101ee565b6001600160401b0382161561048057426001600160401b0316826001600160401b0316116104805760405162461bcd60e51b815260206004820152600a6024820152694241445f45585049525960b01b60448201526064016101ee565b60008681526004602090815260408083206001600160a01b03891680855290835281842080546001600160401b0388166101000268ffffffffffffffffff1982161760011782558b865260058552838620928652919093529220909160ff16906104eb86888361104b565b508061051d576001600160a01b0387166000908152600360209081526040822080546001810182559083529120018890555b6040516001600160401b03851681526001600160a01b0388169033908a907f1034bc32f214c732e234ff2a186193b7d78859ccb355d2e34a5a5777bc85d9b89060200160405180910390a46040516001600160a01b0388169033908a907ffa6061005bd5ec69519ec9981d334bda946a872196e1ad2d9c862606b5f0c39190600090a45050505050505050565b3360009081526003602090815260409182902080548351818402810184019094528084526060939283018282801561060157602002820191906000526020600020905b8154815260200190600101908083116105ed575b5050505050905090565b3360009081526002602090815260409182902080548351818402810184019094528084526060939283018282801561060157602002820191906000526020600020908154815260200190600101908083116105ed575050505050905090565b60606106768233610acc565b6106af5760405162461bcd60e51b815260206004820152600a6024820152691393d7d0d3d394d1539560b21b60448201526064016101ee565b6000828152600560209081526040808320338452909152902080546106d390610fac565b80601f01602080910402602001604051908101604052809291908181526020018280546106ff90610fac565b801561074c5780601f106107215761010080835404028352916020019161074c565b820191906000526020600020905b81548152906001019060200180831161072f57829003601f168201915b50505050509050919050565b60006001600160a01b03881661079e5760405162461bcd60e51b815260206004820152600b60248201526a10905117d410551251539560aa1b60448201526064016101ee565b856107d55760405162461bcd60e51b815260206004820152600760248201526610905117d0d25160ca1b60448201526064016101ee565b8461080d5760405162461bcd60e51b81526020600482015260086024820152670848288be9082a6960c31b60448201526064016101ee565b60008054908061081c8361110b565b9190505590506040518060c00160405280896001600160a01b03168152602001336001600160a01b0316815260200188888080601f016020809104026020016040519081016040528093929190818152602001838380828437600092018290525093855250505060208083018990526040808401899052426001600160401b0316606090940193909352848252600180825291839020845181546001600160a01b03199081166001600160a01b0392831617835592860151938201805490931693169290921790559082015160028201906108f79082611132565b5060608201516003820155608082015160048083019190915560a0909201516005918201805467ffffffffffffffff19166001600160401b039283161790556001600160a01b038b1660008181526002602090815260408083208054600181810183559185528385200189905581518083018352908152808301848152898552978352818420858552835281842090518154985168ffffffffffffffffff1990991690151568ffffffffffffffff00191617610100989096169790970294909417909555858152928452818320908352909252206109d683858361104b565b506001600160a01b0388166000818152600360209081526040808320805460018101825590845291909220018390555133919083907ffa04b0cf6ec68c19f6eb7fe0668c675d242a88b866c215ad0d53c98496e5d0a890610a3e9089908b908e908e906111f1565b60405180910390a4604051600081526001600160a01b03891690819083907f1034bc32f214c732e234ff2a186193b7d78859ccb355d2e34a5a5777bc85d9b89060200160405180910390a46040516001600160a01b03891690819083907ffa6061005bd5ec69519ec9981d334bda946a872196e1ad2d9c862606b5f0c39190600090a4979650505050505050565b60008281526004602090815260408083206001600160a01b0385168452825280832081518083019092525460ff811615158083526101009091046001600160401b03169282019290925290610b25576000915050610b59565b80602001516001600160401b0316600003610b44576001915050610b59565b602001516001600160401b0342811691161190505b92915050565b60008281526001602052604090205482906001600160a01b03163314610bb55760405162461bcd60e51b815260206004820152600b60248201526a1393d517d410551251539560aa1b60448201526064016101ee565b60008381526004602090815260408083206001600160a01b03861684529091529020805460ff16610c155760405162461bcd60e51b815260206004820152600a6024820152694e4f545f41435449564560b01b60448201526064016101ee565b805468ffffffffffffffffff1916815560008481526005602090815260408083206001600160a01b03871684529091528120610c5091610c8e565b6040516001600160a01b03841690339086907fa00855935b5f77dd67252f3420ac5ba0f865a3407fb52a270a20cdcdb70139ee90600090a450505050565b508054610c9a90610fac565b6000825580601f10610caa575050565b601f016020900490600052602060002090810190610cc89190610ccb565b50565b5b80821115610ce05760008155600101610ccc565b5090565b600060208284031215610cf657600080fd5b5035919050565b6000815180845260005b81811015610d2357602081850181015186830182015201610d07565b506000602082860101526020601f19601f83011685010191505092915050565b60208152600060018060a01b0380845116602084015280602085015116604084015250604083015160c06060840152610d7f60e0840182610cfd565b905060608401516080840152608084015160a08401526001600160401b0360a08501511660c08401528091505092915050565b80356001600160a01b0381168114610dc957600080fd5b919050565b60008083601f840112610de057600080fd5b5081356001600160401b03811115610df757600080fd5b602083019150836020828501011115610e0f57600080fd5b9250929050565b600080600080600060808688031215610e2e57600080fd5b85359450610e3e60208701610db2565b935060408601356001600160401b0380821115610e5a57600080fd5b610e6689838a01610dce565b9095509350606088013591508082168214610e8057600080fd5b50809150509295509295909350565b6020808252825182820181905260009190848201906040850190845b81811015610ec757835183529284019291840191600101610eab565b50909695505050505050565b602081526000610ee66020830184610cfd565b9392505050565b600080600080600080600060a0888a031215610f0857600080fd5b610f1188610db2565b965060208801356001600160401b0380821115610f2d57600080fd5b610f398b838c01610dce565b909850965060408a0135955060608a0135945060808a0135915080821115610f6057600080fd5b50610f6d8a828b01610dce565b989b979a50959850939692959293505050565b60008060408385031215610f9357600080fd5b82359150610fa360208401610db2565b90509250929050565b600181811c90821680610fc057607f821691505b602082108103610fe057634e487b7160e01b600052602260045260246000fd5b50919050565b634e487b7160e01b600052604160045260246000fd5b601f82111561104657600081815260208120601f850160051c810160208610156110235750805b601f850160051c820191505b818110156110425782815560010161102f565b5050505b505050565b6001600160401b0383111561106257611062610fe6565b611076836110708354610fac565b83610ffc565b6000601f8411600181146110aa57600085156110925750838201355b600019600387901b1c1916600186901b178355611104565b600083815260209020601f19861690835b828110156110db57868501358255602094850194600190920191016110bb565b50868210156110f85760001960f88860031b161c19848701351681555b505060018560011b0183555b5050505050565b60006001820161112b57634e487b7160e01b600052601160045260246000fd5b5060010190565b81516001600160401b0381111561114b5761114b610fe6565b61115f816111598454610fac565b84610ffc565b602080601f831160018114611194576000841561117c5750858301515b600019600386901b1c1916600185901b178555611042565b600085815260208120601f198616915b828110156111c3578886015182559484019460019091019084016111a4565b50858210156111e15787850151600019600388901b60f8161c191681555b5050505050600190811b01905550565b84815283602082015260606040820152816060820152818360808301376000818301608090810191909152601f909201601f19160101939250505056fea2646970667358221220d2529e7546ffcdd881ced068aa7a20b2f1bfdf4828d1d41d29294db19878d76364736f6c63430008140033",
  "linkReferences": {},
  "deployedLinkReferences": {}
}